{
  "contractName": "BasicNFT",
  "abi": [
    {
      "inputs": [],
      "stateMutability": "nonpayable",
      "type": "constructor"
    },
    {
      "anonymous": false,
      "inputs": [
        {
          "indexed": true,
          "internalType": "address",
          "name": "owner",
          "type": "address"
        },
        {
          "indexed": true,
          "internalType": "address",
          "name": "approved",
          "type": "address"
        },
        {
          "indexed": true,
          "internalType": "uint256",
          "name": "tokenId",
          "type": "uint256"
        }
      ],
      "name": "Approval",
      "type": "event"
    },
    {
      "anonymous": false,
      "inputs": [
        {
          "indexed": true,
          "internalType": "address",
          "name": "owner",
          "type": "address"
        },
        {
          "indexed": true,
          "internalType": "address",
          "name": "operator",
          "type": "address"
        },
        {
          "indexed": false,
          "internalType": "bool",
          "name": "approved",
          "type": "bool"
        }
      ],
      "name": "ApprovalForAll",
      "type": "event"
    },
    {
      "anonymous": false,
      "inputs": [
        {
          "indexed": false,
          "internalType": "uint256",
          "name": "coinIndex",
          "type": "uint256"
        },
        {
          "indexed": false,
          "internalType": "uint256",
          "name": "value",
          "type": "uint256"
        },
        {
          "indexed": false,
          "internalType": "address",
          "name": "fromAddress",
          "type": "address"
        }
      ],
      "name": "CoinBidEntered",
      "type": "event"
    },
    {
      "anonymous": false,
      "inputs": [
        {
          "indexed": false,
          "internalType": "uint256",
          "name": "coinIndex",
          "type": "uint256"
        },
        {
          "indexed": false,
          "internalType": "uint256",
          "name": "value",
          "type": "uint256"
        },
        {
          "indexed": false,
          "internalType": "address",
          "name": "fromAddress",
          "type": "address"
        }
      ],
      "name": "CoinBidWithdrawn",
      "type": "event"
    },
    {
      "anonymous": false,
      "inputs": [
        {
          "indexed": false,
          "internalType": "uint256",
          "name": "coinIndex",
          "type": "uint256"
        },
        {
          "indexed": false,
          "internalType": "uint256",
          "name": "value",
          "type": "uint256"
        },
        {
          "indexed": false,
          "internalType": "address",
          "name": "fromAddress",
          "type": "address"
        },
        {
          "indexed": false,
          "internalType": "address",
          "name": "toAddress",
          "type": "address"
        }
      ],
      "name": "CoinBought",
      "type": "event"
    },
    {
      "anonymous": false,
      "inputs": [
        {
          "indexed": false,
          "internalType": "uint256",
          "name": "coinIndex",
          "type": "uint256"
        }
      ],
      "name": "CoinNoMoreForSale",
      "type": "event"
    },
    {
      "anonymous": false,
      "inputs": [
        {
          "indexed": false,
          "internalType": "uint256",
          "name": "coinIndex",
          "type": "uint256"
        },
        {
          "indexed": false,
          "internalType": "uint256",
          "name": "minPrice",
          "type": "uint256"
        },
        {
          "indexed": false,
          "internalType": "address",
          "name": "toAddress",
          "type": "address"
        }
      ],
      "name": "CoinOffered",
      "type": "event"
    },
    {
      "anonymous": false,
      "inputs": [
        {
          "indexed": true,
          "internalType": "address",
          "name": "previousOwner",
          "type": "address"
        },
        {
          "indexed": true,
          "internalType": "address",
          "name": "newOwner",
          "type": "address"
        }
      ],
      "name": "OwnershipTransferred",
      "type": "event"
    },
    {
      "anonymous": false,
      "inputs": [
        {
          "indexed": true,
          "internalType": "address",
          "name": "from",
          "type": "address"
        },
        {
          "indexed": true,
          "internalType": "address",
          "name": "to",
          "type": "address"
        },
        {
          "indexed": true,
          "internalType": "uint256",
          "name": "tokenId",
          "type": "uint256"
        }
      ],
      "name": "Transfer",
      "type": "event"
    },
    {
      "inputs": [
        {
          "internalType": "address",
          "name": "to",
          "type": "address"
        },
        {
          "internalType": "uint256",
          "name": "tokenId",
          "type": "uint256"
        }
      ],
      "name": "approve",
      "outputs": [],
      "stateMutability": "nonpayable",
      "type": "function"
    },
    {
      "inputs": [
        {
          "internalType": "address",
          "name": "owner",
          "type": "address"
        }
      ],
      "name": "balanceOf",
      "outputs": [
        {
          "internalType": "uint256",
          "name": "",
          "type": "uint256"
        }
      ],
      "stateMutability": "view",
      "type": "function"
    },
    {
      "inputs": [],
      "name": "baseURI",
      "outputs": [
        {
          "internalType": "string",
          "name": "",
          "type": "string"
        }
      ],
      "stateMutability": "view",
      "type": "function"
    },
    {
      "inputs": [
        {
          "internalType": "uint256",
          "name": "",
          "type": "uint256"
        }
      ],
      "name": "coinBids",
      "outputs": [
        {
          "internalType": "bool",
          "name": "hasBid",
          "type": "bool"
        },
        {
          "internalType": "uint256",
          "name": "coinIndex",
          "type": "uint256"
        },
        {
          "internalType": "address",
          "name": "bidder",
          "type": "address"
        },
        {
          "internalType": "uint256",
          "name": "value",
          "type": "uint256"
        }
      ],
      "stateMutability": "view",
      "type": "function"
    },
    {
      "inputs": [
        {
          "internalType": "uint256",
          "name": "",
          "type": "uint256"
        }
      ],
      "name": "coins",
      "outputs": [
        {
          "internalType": "uint256",
          "name": "coinIndex",
          "type": "uint256"
        },
        {
          "internalType": "string",
          "name": "nameOfCoin",
          "type": "string"
        },
        {
          "internalType": "string",
          "name": "ipfsHash",
          "type": "string"
        }
      ],
      "stateMutability": "view",
      "type": "function"
    },
    {
      "inputs": [
        {
          "internalType": "uint256",
          "name": "",
          "type": "uint256"
        }
      ],
      "name": "coinsOfferedForSale",
      "outputs": [
        {
          "internalType": "bool",
          "name": "isForSale",
          "type": "bool"
        },
        {
          "internalType": "uint256",
          "name": "coinIndex",
          "type": "uint256"
        },
        {
          "internalType": "address",
          "name": "seller",
          "type": "address"
        },
        {
          "internalType": "uint256",
          "name": "minValue",
          "type": "uint256"
        },
        {
          "internalType": "address",
          "name": "onlySellTo",
          "type": "address"
        }
      ],
      "stateMutability": "view",
      "type": "function"
    },
    {
      "inputs": [
        {
          "internalType": "uint256",
          "name": "tokenId",
          "type": "uint256"
        }
      ],
      "name": "getApproved",
      "outputs": [
        {
          "internalType": "address",
          "name": "",
          "type": "address"
        }
      ],
      "stateMutability": "view",
      "type": "function"
    },
    {
      "inputs": [
        {
          "internalType": "address",
          "name": "owner",
          "type": "address"
        },
        {
          "internalType": "address",
          "name": "operator",
          "type": "address"
        }
      ],
      "name": "isApprovedForAll",
      "outputs": [
        {
          "internalType": "bool",
          "name": "",
          "type": "bool"
        }
      ],
      "stateMutability": "view",
      "type": "function"
    },
    {
      "inputs": [],
      "name": "name",
      "outputs": [
        {
          "internalType": "string",
          "name": "",
          "type": "string"
        }
      ],
      "stateMutability": "view",
      "type": "function"
    },
    {
      "inputs": [],
      "name": "owner",
      "outputs": [
        {
          "internalType": "address",
          "name": "",
          "type": "address"
        }
      ],
      "stateMutability": "view",
      "type": "function"
    },
    {
      "inputs": [
        {
          "internalType": "uint256",
          "name": "tokenId",
          "type": "uint256"
        }
      ],
      "name": "ownerOf",
      "outputs": [
        {
          "internalType": "address",
          "name": "",
          "type": "address"
        }
      ],
      "stateMutability": "view",
      "type": "function"
    },
    {
      "inputs": [
        {
          "internalType": "address",
          "name": "",
          "type": "address"
        }
      ],
      "name": "pendingWithdrawals",
      "outputs": [
        {
          "internalType": "uint256",
          "name": "",
          "type": "uint256"
        }
      ],
      "stateMutability": "view",
      "type": "function"
    },
    {
      "inputs": [],
      "name": "renounceOwnership",
      "outputs": [],
      "stateMutability": "nonpayable",
      "type": "function"
    },
    {
      "inputs": [
        {
          "internalType": "address",
          "name": "from",
          "type": "address"
        },
        {
          "internalType": "address",
          "name": "to",
          "type": "address"
        },
        {
          "internalType": "uint256",
          "name": "tokenId",
          "type": "uint256"
        }
      ],
      "name": "safeTransferFrom",
      "outputs": [],
      "stateMutability": "nonpayable",
      "type": "function"
    },
    {
      "inputs": [
        {
          "internalType": "address",
          "name": "from",
          "type": "address"
        },
        {
          "internalType": "address",
          "name": "to",
          "type": "address"
        },
        {
          "internalType": "uint256",
          "name": "tokenId",
          "type": "uint256"
        },
        {
          "internalType": "bytes",
          "name": "_data",
          "type": "bytes"
        }
      ],
      "name": "safeTransferFrom",
      "outputs": [],
      "stateMutability": "nonpayable",
      "type": "function"
    },
    {
      "inputs": [
        {
          "internalType": "address",
          "name": "operator",
          "type": "address"
        },
        {
          "internalType": "bool",
          "name": "approved",
          "type": "bool"
        }
      ],
      "name": "setApprovalForAll",
      "outputs": [],
      "stateMutability": "nonpayable",
      "type": "function"
    },
    {
      "inputs": [
        {
          "internalType": "bytes4",
          "name": "interfaceId",
          "type": "bytes4"
        }
      ],
      "name": "supportsInterface",
      "outputs": [
        {
          "internalType": "bool",
          "name": "",
          "type": "bool"
        }
      ],
      "stateMutability": "view",
      "type": "function"
    },
    {
      "inputs": [],
      "name": "symbol",
      "outputs": [
        {
          "internalType": "string",
          "name": "",
          "type": "string"
        }
      ],
      "stateMutability": "view",
      "type": "function"
    },
    {
      "inputs": [
        {
          "internalType": "uint256",
          "name": "index",
          "type": "uint256"
        }
      ],
      "name": "tokenByIndex",
      "outputs": [
        {
          "internalType": "uint256",
          "name": "",
          "type": "uint256"
        }
      ],
      "stateMutability": "view",
      "type": "function"
    },
    {
      "inputs": [
        {
          "internalType": "address",
          "name": "owner",
          "type": "address"
        },
        {
          "internalType": "uint256",
          "name": "index",
          "type": "uint256"
        }
      ],
      "name": "tokenOfOwnerByIndex",
      "outputs": [
        {
          "internalType": "uint256",
          "name": "",
          "type": "uint256"
        }
      ],
      "stateMutability": "view",
      "type": "function"
    },
    {
      "inputs": [
        {
          "internalType": "uint256",
          "name": "tokenId",
          "type": "uint256"
        }
      ],
      "name": "tokenURI",
      "outputs": [
        {
          "internalType": "string",
          "name": "",
          "type": "string"
        }
      ],
      "stateMutability": "view",
      "type": "function"
    },
    {
      "inputs": [],
      "name": "totalSupply",
      "outputs": [
        {
          "internalType": "uint256",
          "name": "",
          "type": "uint256"
        }
      ],
      "stateMutability": "view",
      "type": "function"
    },
    {
      "inputs": [
        {
          "internalType": "address",
          "name": "from",
          "type": "address"
        },
        {
          "internalType": "address",
          "name": "to",
          "type": "address"
        },
        {
          "internalType": "uint256",
          "name": "tokenId",
          "type": "uint256"
        }
      ],
      "name": "transferFrom",
      "outputs": [],
      "stateMutability": "nonpayable",
      "type": "function"
    },
    {
      "inputs": [
        {
          "internalType": "address",
          "name": "newOwner",
          "type": "address"
        }
      ],
      "name": "transferOwnership",
      "outputs": [],
      "stateMutability": "nonpayable",
      "type": "function"
    },
    {
      "inputs": [
        {
          "internalType": "string",
          "name": "_nameOfCoin",
          "type": "string"
        },
        {
          "internalType": "string",
          "name": "_ipfsHash",
          "type": "string"
        }
      ],
      "name": "preMint",
      "outputs": [],
      "stateMutability": "nonpayable",
      "type": "function"
    },
    {
      "inputs": [],
      "name": "BuyNewCoin",
      "outputs": [],
      "stateMutability": "payable",
      "type": "function"
    },
    {
      "inputs": [
        {
          "internalType": "uint256",
          "name": "_coinIndex",
          "type": "uint256"
        }
      ],
      "name": "CoinNoLongerForSale",
      "outputs": [],
      "stateMutability": "nonpayable",
      "type": "function"
    },
    {
      "inputs": [
        {
          "internalType": "uint256",
          "name": "_coinIndex",
          "type": "uint256"
        },
        {
          "internalType": "uint256",
          "name": "minSalePriceInWei",
          "type": "uint256"
        }
      ],
      "name": "offerCoinForSale",
      "outputs": [],
      "stateMutability": "nonpayable",
      "type": "function"
    },
    {
      "inputs": [
        {
          "internalType": "uint256",
          "name": "_coinIndex",
          "type": "uint256"
        },
        {
          "internalType": "uint256",
          "name": "minSalePriceInWei",
          "type": "uint256"
        },
        {
          "internalType": "address",
          "name": "toAddress",
          "type": "address"
        }
      ],
      "name": "offerCoinForSaleToAddress",
      "outputs": [],
      "stateMutability": "nonpayable",
      "type": "function"
    },
    {
      "inputs": [
        {
          "internalType": "uint256",
          "name": "_coinIndex",
          "type": "uint256"
        }
      ],
      "name": "buyCoin",
      "outputs": [],
      "stateMutability": "payable",
      "type": "function"
    },
    {
      "inputs": [
        {
          "internalType": "address",
          "name": "to",
          "type": "address"
        },
        {
          "internalType": "uint256",
          "name": "_coinIndex",
          "type": "uint256"
        }
      ],
      "name": "transferCoin",
      "outputs": [],
      "stateMutability": "nonpayable",
      "type": "function"
    },
    {
      "inputs": [],
      "name": "withdraw",
      "outputs": [],
      "stateMutability": "nonpayable",
      "type": "function"
    },
    {
      "inputs": [
        {
          "internalType": "uint256",
          "name": "_coinIndex",
          "type": "uint256"
        }
      ],
      "name": "enterBidForCoin",
      "outputs": [],
      "stateMutability": "payable",
      "type": "function"
    },
    {
      "inputs": [
        {
          "internalType": "uint256",
          "name": "_coinIndex",
          "type": "uint256"
        },
        {
          "internalType": "uint256",
          "name": "minPrice",
          "type": "uint256"
        }
      ],
      "name": "acceptBidForCoin",
      "outputs": [],
      "stateMutability": "nonpayable",
      "type": "function"
    },
    {
      "inputs": [
        {
          "internalType": "uint256",
          "name": "_coinIndex",
          "type": "uint256"
        }
      ],
      "name": "withdrawBidForCoin",
      "outputs": [],
      "stateMutability": "nonpayable",
      "type": "function"
    }
  ],
  "bytecode": "0x60806040523480156200001157600080fd5b506040518060400160405280600881526020017f436f696e617374790000000000000000000000000000000000000000000000008152506040518060400160405280600581526020017f434e535459000000000000000000000000000000000000000000000000000000815250620000966301ffc9a760e01b6200020a60201b60201c565b8160069080519060200190620000ae9291906200031b565b508060079080519060200190620000c79291906200031b565b50620000e06380ac58cd60e01b6200020a60201b60201c565b620000f8635b5e139f60e01b6200020a60201b60201c565b6200011063780e9d6360e01b6200020a60201b60201c565b50506000620001246200031360201b60201c565b905080600a60006101000a81548173ffffffffffffffffffffffffffffffffffffffff021916908373ffffffffffffffffffffffffffffffffffffffff1602179055508073ffffffffffffffffffffffffffffffffffffffff16600073ffffffffffffffffffffffffffffffffffffffff167f8be0079c531659141344cd1fd0a4f28419497f9722a3daafe3b4186f6b6457e060405160405180910390a35033600c60006101000a81548173ffffffffffffffffffffffffffffffffffffffff021916908373ffffffffffffffffffffffffffffffffffffffff160217905550620003c1565b63ffffffff60e01b817bffffffffffffffffffffffffffffffffffffffffffffffffffffffff19161415620002a7576040517f08c379a000000000000000000000000000000000000000000000000000000000815260040180806020018281038252601c8152602001807f4552433136353a20696e76616c696420696e746572666163652069640000000081525060200191505060405180910390fd5b6001600080837bffffffffffffffffffffffffffffffffffffffffffffffffffffffff19167bffffffffffffffffffffffffffffffffffffffffffffffffffffffff1916815260200190815260200160002060006101000a81548160ff02191690831515021790555050565b600033905090565b828054600181600116156101000203166002900490600052602060002090601f016020900481019282601f106200035e57805160ff19168380011785556200038f565b828001600101855582156200038f579182015b828111156200038e57825182559160200191906001019062000371565b5b5090506200039e9190620003a2565b5090565b5b80821115620003bd576000816000905550600101620003a3565b5090565b61510d80620003d16000396000f3fe6080604052600436106102045760003560e01c806370a0823111610118578063b88d4fde116100a0578063d92b36001161006f578063d92b360014610f5f578063e28ee9ab14610fdb578063e985e9c514610fe5578063f2fde38b1461106c578063f3f43703146110bd57610204565b8063b88d4fde14610c2d578063c661065714610d3f578063c87b56dd14610e66578063cbb8285214610f1a57610204565b80638dde60fa116100e75780638dde60fa146109e757806395d89b4114610a42578063977ff72914610ad2578063a22cb46514610b37578063a607987314610b9457610204565b806370a08231146108fc578063715018a61461096157806387792574146109785780638da5cb5b146109a657610204565b80632f745c591161019b5780634f6ccce71161016a5780634f6ccce71461073857806351952d421461078757806355f8dc69146107c25780636352211e146108075780636c0360eb1461086c57610204565b80632f745c59146106095780633ccfd60b14610678578063416d0cf81461068f57806342842e0e146106bd57610204565b806318160ddd116101d757806318160ddd146103c957806318f500a3146103f45780631949309f1461055357806323b872dd1461058e57610204565b806301ffc9a71461020957806306fdde0314610279578063081812fc14610309578063095ea7b31461036e575b600080fd5b34801561021557600080fd5b506102616004803603602081101561022c57600080fd5b8101908080357bffffffffffffffffffffffffffffffffffffffffffffffffffffffff19169060200190929190505050611122565b60405180821515815260200191505060405180910390f35b34801561028557600080fd5b5061028e611189565b6040518080602001828103825283818151815260200191508051906020019080838360005b838110156102ce5780820151818401526020810190506102b3565b50505050905090810190601f1680156102fb5780820380516001836020036101000a031916815260200191505b509250505060405180910390f35b34801561031557600080fd5b506103426004803603602081101561032c57600080fd5b810190808035906020019092919050505061122b565b604051808273ffffffffffffffffffffffffffffffffffffffff16815260200191505060405180910390f35b34801561037a57600080fd5b506103c76004803603604081101561039157600080fd5b81019080803573ffffffffffffffffffffffffffffffffffffffff169060200190929190803590602001909291905050506112c6565b005b3480156103d557600080fd5b506103de61140a565b6040518082815260200191505060405180910390f35b34801561040057600080fd5b506105516004803603604081101561041757600080fd5b810190808035906020019064010000000081111561043457600080fd5b82018360208201111561044657600080fd5b8035906020019184600183028401116401000000008311171561046857600080fd5b91908080601f016020809104026020016040519081016040528093929190818152602001838380828437600081840152601f19601f820116905080830192505050505050509192919290803590602001906401000000008111156104cb57600080fd5b8201836020820111156104dd57600080fd5b803590602001918460018302840111640100000000831117156104ff57600080fd5b91908080601f016020809104026020016040519081016040528093929190818152602001838380828437600081840152601f19601f82011690508083019250505050505050919291929050505061141b565b005b34801561055f57600080fd5b5061058c6004803603602081101561057657600080fd5b8101908080359060200190929190505050611526565b005b34801561059a57600080fd5b50610607600480360360608110156105b157600080fd5b81019080803573ffffffffffffffffffffffffffffffffffffffff169060200190929190803573ffffffffffffffffffffffffffffffffffffffff16906020019092919080359060200190929190505050611815565b005b34801561061557600080fd5b506106626004803603604081101561062c57600080fd5b81019080803573ffffffffffffffffffffffffffffffffffffffff1690602001909291908035906020019092919050505061188b565b6040518082815260200191505060405180910390f35b34801561068457600080fd5b5061068d6118e6565b005b6106bb600480360360208110156106a557600080fd5b81019080803590602001909291905050506119b9565b005b3480156106c957600080fd5b50610736600480360360608110156106e057600080fd5b81019080803573ffffffffffffffffffffffffffffffffffffffff169060200190929190803573ffffffffffffffffffffffffffffffffffffffff16906020019092919080359060200190929190505050611c96565b005b34801561074457600080fd5b506107716004803603602081101561075b57600080fd5b8101908080359060200190929190505050611cb6565b6040518082815260200191505060405180910390f35b34801561079357600080fd5b506107c0600480360360208110156107aa57600080fd5b8101908080359060200190929190505050611cd9565b005b3480156107ce57600080fd5b50610805600480360360408110156107e557600080fd5b810190808035906020019092919080359060200190929190505050611e83565b005b34801561081357600080fd5b506108406004803603602081101561082a57600080fd5b8101908080359060200190929190505050612054565b604051808273ffffffffffffffffffffffffffffffffffffffff16815260200191505060405180910390f35b34801561087857600080fd5b5061088161208b565b6040518080602001828103825283818151815260200191508051906020019080838360005b838110156108c15780820151818401526020810190506108a6565b50505050905090810190601f1680156108ee5780820380516001836020036101000a031916815260200191505b509250505060405180910390f35b34801561090857600080fd5b5061094b6004803603602081101561091f57600080fd5b81019080803573ffffffffffffffffffffffffffffffffffffffff16906020019092919050505061212d565b6040518082815260200191505060405180910390f35b34801561096d57600080fd5b50610976612202565b005b6109a46004803603602081101561098e57600080fd5b810190808035906020019092919050505061238d565b005b3480156109b257600080fd5b506109bb6127e2565b604051808273ffffffffffffffffffffffffffffffffffffffff16815260200191505060405180910390f35b3480156109f357600080fd5b50610a4060048036036040811015610a0a57600080fd5b81019080803573ffffffffffffffffffffffffffffffffffffffff1690602001909291908035906020019092919050505061280c565b005b348015610a4e57600080fd5b50610a57612a93565b6040518080602001828103825283818151815260200191508051906020019080838360005b83811015610a97578082015181840152602081019050610a7c565b50505050905090810190601f168015610ac45780820380516001836020036101000a031916815260200191505b509250505060405180910390f35b348015610ade57600080fd5b50610b3560048036036060811015610af557600080fd5b810190808035906020019092919080359060200190929190803573ffffffffffffffffffffffffffffffffffffffff169060200190929190505050612b35565b005b348015610b4357600080fd5b50610b9260048036036040811015610b5a57600080fd5b81019080803573ffffffffffffffffffffffffffffffffffffffff169060200190929190803515159060200190929190505050612d05565b005b348015610ba057600080fd5b50610bcd60048036036020811015610bb757600080fd5b8101908080359060200190929190505050612ebb565b6040518086151581526020018581526020018473ffffffffffffffffffffffffffffffffffffffff1681526020018381526020018273ffffffffffffffffffffffffffffffffffffffff1681526020019550505050505060405180910390f35b348015610c3957600080fd5b50610d3d60048036036080811015610c5057600080fd5b81019080803573ffffffffffffffffffffffffffffffffffffffff169060200190929190803573ffffffffffffffffffffffffffffffffffffffff1690602001909291908035906020019092919080359060200190640100000000811115610cb757600080fd5b820183602082011115610cc957600080fd5b80359060200191846001830284011164010000000083111715610ceb57600080fd5b91908080601f016020809104026020016040519081016040528093929190818152602001838380828437600081840152601f19601f820116905080830192505050505050509192919290505050612f3e565b005b348015610d4b57600080fd5b50610d7860048036036020811015610d6257600080fd5b8101908080359060200190929190505050612fb6565b604051808481526020018060200180602001838103835285818151815260200191508051906020019080838360005b83811015610dc2578082015181840152602081019050610da7565b50505050905090810190601f168015610def5780820380516001836020036101000a031916815260200191505b50838103825284818151815260200191508051906020019080838360005b83811015610e28578082015181840152602081019050610e0d565b50505050905090810190601f168015610e555780820380516001836020036101000a031916815260200191505b509550505050505060405180910390f35b348015610e7257600080fd5b50610e9f60048036036020811015610e8957600080fd5b810190808035906020019092919050505061311d565b6040518080602001828103825283818151815260200191508051906020019080838360005b83811015610edf578082015181840152602081019050610ec4565b50505050905090810190601f168015610f0c5780820380516001836020036101000a031916815260200191505b509250505060405180910390f35b348015610f2657600080fd5b50610f5d60048036036040811015610f3d57600080fd5b810190808035906020019092919080359060200190929190505050613406565b005b348015610f6b57600080fd5b50610f9860048036036020811015610f8257600080fd5b810190808035906020019092919050505061380b565b6040518085151581526020018481526020018373ffffffffffffffffffffffffffffffffffffffff16815260200182815260200194505050505060405180910390f35b610fe3613868565b005b348015610ff157600080fd5b506110546004803603604081101561100857600080fd5b81019080803573ffffffffffffffffffffffffffffffffffffffff169060200190929190803573ffffffffffffffffffffffffffffffffffffffff16906020019092919050505061386a565b60405180821515815260200191505060405180910390f35b34801561107857600080fd5b506110bb6004803603602081101561108f57600080fd5b81019080803573ffffffffffffffffffffffffffffffffffffffff1690602001909291905050506138fe565b005b3480156110c957600080fd5b5061110c600480360360208110156110e057600080fd5b81019080803573ffffffffffffffffffffffffffffffffffffffff169060200190929190505050613b0e565b6040518082815260200191505060405180910390f35b6000806000837bffffffffffffffffffffffffffffffffffffffffffffffffffffffff19167bffffffffffffffffffffffffffffffffffffffffffffffffffffffff1916815260200190815260200160002060009054906101000a900460ff169050919050565b606060068054600181600116156101000203166002900480601f0160208091040260200160405190810160405280929190818152602001828054600181600116156101000203166002900480156112215780601f106111f657610100808354040283529160200191611221565b820191906000526020600020905b81548152906001019060200180831161120457829003601f168201915b5050505050905090565b600061123682613b26565b61128b576040517f08c379a000000000000000000000000000000000000000000000000000000000815260040180806020018281038252602c815260200180615002602c913960400191505060405180910390fd5b6004600083815260200190815260200160002060009054906101000a900473ffffffffffffffffffffffffffffffffffffffff169050919050565b60006112d182612054565b90508073ffffffffffffffffffffffffffffffffffffffff168373ffffffffffffffffffffffffffffffffffffffff161415611358576040517f08c379a00000000000000000000000000000000000000000000000000000000081526004018080602001828103825260218152602001806150866021913960400191505060405180910390fd5b8073ffffffffffffffffffffffffffffffffffffffff16611377613b43565b73ffffffffffffffffffffffffffffffffffffffff1614806113a657506113a5816113a0613b43565b61386a565b5b6113fb576040517f08c379a0000000000000000000000000000000000000000000000000000000008152600401808060200182810382526038815260200180614f556038913960400191505060405180910390fd5b6114058383613b4b565b505050565b60006114166002613c04565b905090565b600c60009054906101000a900473ffffffffffffffffffffffffffffffffffffffff1673ffffffffffffffffffffffffffffffffffffffff163373ffffffffffffffffffffffffffffffffffffffff161461147557600080fd5b60006010805490509050611487614d2f565b604051806060016040528083815260200185815260200184815250905060108190806001815401808255809150506001900390600052602060002090600302016000909190919091506000820151816000015560208201518160010190805190602001906114f6929190614d50565b506040820151816002019080519060200190611513929190614d50565b5050506115203383613c19565b50505050565b600073ffffffffffffffffffffffffffffffffffffffff1661154782612054565b73ffffffffffffffffffffffffffffffffffffffff16141561156857600080fd5b3373ffffffffffffffffffffffffffffffffffffffff1661158882612054565b73ffffffffffffffffffffffffffffffffffffffff1614156115a957600080fd5b6115b1614dd0565b600e60008381526020019081526020016000206040518060800160405290816000820160009054906101000a900460ff16151515158152602001600182015481526020016002820160009054906101000a900473ffffffffffffffffffffffffffffffffffffffff1673ffffffffffffffffffffffffffffffffffffffff1673ffffffffffffffffffffffffffffffffffffffff16815260200160038201548152505090503373ffffffffffffffffffffffffffffffffffffffff16816040015173ffffffffffffffffffffffffffffffffffffffff161461169257600080fd5b7fee14cf4458bda20cc2dd75ee4de3b15ea05d006c903359cf2eb1f46c057bc9cf82826060015133604051808481526020018381526020018273ffffffffffffffffffffffffffffffffffffffff168152602001935050505060405180910390a16000816060015190506040518060800160405280600015158152602001848152602001600073ffffffffffffffffffffffffffffffffffffffff1681526020016000815250600e600085815260200190815260200160002060008201518160000160006101000a81548160ff0219169083151502179055506020820151816001015560408201518160020160006101000a81548173ffffffffffffffffffffffffffffffffffffffff021916908373ffffffffffffffffffffffffffffffffffffffff160217905550606082015181600301559050503373ffffffffffffffffffffffffffffffffffffffff166108fc829081150290604051600060405180830381858888f1935050505015801561180f573d6000803e3d6000fd5b50505050565b611826611820613b43565b82613e0d565b61187b576040517f08c379a00000000000000000000000000000000000000000000000000000000081526004018080602001828103825260318152602001806150a76031913960400191505060405180910390fd5b611886838383613f01565b505050565b60006118de82600160008673ffffffffffffffffffffffffffffffffffffffff1673ffffffffffffffffffffffffffffffffffffffff16815260200190815260200160002061414490919063ffffffff16565b905092915050565b6000600f60003373ffffffffffffffffffffffffffffffffffffffff1673ffffffffffffffffffffffffffffffffffffffff1681526020019081526020016000205490506000600f60003373ffffffffffffffffffffffffffffffffffffffff1673ffffffffffffffffffffffffffffffffffffffff168152602001908152602001600020819055503373ffffffffffffffffffffffffffffffffffffffff166108fc829081150290604051600060405180830381858888f193505050501580156119b5573d6000803e3d6000fd5b5050565b600073ffffffffffffffffffffffffffffffffffffffff166119da82612054565b73ffffffffffffffffffffffffffffffffffffffff1614156119fb57600080fd5b3373ffffffffffffffffffffffffffffffffffffffff16611a1b82612054565b73ffffffffffffffffffffffffffffffffffffffff161415611a3c57600080fd5b6000341415611a4a57600080fd5b611a52614dd0565b600e60008381526020019081526020016000206040518060800160405290816000820160009054906101000a900460ff16151515158152602001600182015481526020016002820160009054906101000a900473ffffffffffffffffffffffffffffffffffffffff1673ffffffffffffffffffffffffffffffffffffffff1673ffffffffffffffffffffffffffffffffffffffff168152602001600382015481525050905080606001513411611b0757600080fd5b600081606001511115611b6a578060600151600f6000836040015173ffffffffffffffffffffffffffffffffffffffff1673ffffffffffffffffffffffffffffffffffffffff168152602001908152602001600020600082825401925050819055505b60405180608001604052806001151581526020018381526020013373ffffffffffffffffffffffffffffffffffffffff16815260200134815250600e600084815260200190815260200160002060008201518160000160006101000a81548160ff0219169083151502179055506020820151816001015560408201518160020160006101000a81548173ffffffffffffffffffffffffffffffffffffffff021916908373ffffffffffffffffffffffffffffffffffffffff160217905550606082015181600301559050507f27ebeab224541b64dff25b03217825ac2f73fa8f646dc7b5f054ca2aa49b353b823433604051808481526020018381526020018273ffffffffffffffffffffffffffffffffffffffff168152602001935050505060405180910390a15050565b611cb183838360405180602001604052806000815250612f3e565b505050565b600080611ccd83600261415e90919063ffffffff16565b50905080915050919050565b3373ffffffffffffffffffffffffffffffffffffffff16611cf982612054565b73ffffffffffffffffffffffffffffffffffffffff1614611d1957600080fd5b6040518060a001604052806000151581526020018281526020013373ffffffffffffffffffffffffffffffffffffffff16815260200160008152602001600073ffffffffffffffffffffffffffffffffffffffff16815250600d600083815260200190815260200160002060008201518160000160006101000a81548160ff0219169083151502179055506020820151816001015560408201518160020160006101000a81548173ffffffffffffffffffffffffffffffffffffffff021916908373ffffffffffffffffffffffffffffffffffffffff1602179055506060820151816003015560808201518160040160006101000a81548173ffffffffffffffffffffffffffffffffffffffff021916908373ffffffffffffffffffffffffffffffffffffffff1602179055509050507fa36082812d8b74923675a917272061132076a19be27a2ff0af345789fcb875c5816040518082815260200191505060405180910390a150565b3373ffffffffffffffffffffffffffffffffffffffff16611ea383612054565b73ffffffffffffffffffffffffffffffffffffffff1614611ec357600080fd5b6040518060a001604052806001151581526020018381526020013373ffffffffffffffffffffffffffffffffffffffff168152602001828152602001600073ffffffffffffffffffffffffffffffffffffffff16815250600d600084815260200190815260200160002060008201518160000160006101000a81548160ff0219169083151502179055506020820151816001015560408201518160020160006101000a81548173ffffffffffffffffffffffffffffffffffffffff021916908373ffffffffffffffffffffffffffffffffffffffff1602179055506060820151816003015560808201518160040160006101000a81548173ffffffffffffffffffffffffffffffffffffffff021916908373ffffffffffffffffffffffffffffffffffffffff1602179055509050507fb93c24edbc654401ba92e865b581b55624669f98eacad7128b8f59bbdf55cd6682826000604051808481526020018381526020018273ffffffffffffffffffffffffffffffffffffffff168152602001935050505060405180910390a15050565b600061208482604051806060016040528060298152602001614fb760299139600261418a9092919063ffffffff16565b9050919050565b606060098054600181600116156101000203166002900480601f0160208091040260200160405190810160405280929190818152602001828054600181600116156101000203166002900480156121235780601f106120f857610100808354040283529160200191612123565b820191906000526020600020905b81548152906001019060200180831161210657829003601f168201915b5050505050905090565b60008073ffffffffffffffffffffffffffffffffffffffff168273ffffffffffffffffffffffffffffffffffffffff1614156121b4576040517f08c379a000000000000000000000000000000000000000000000000000000000815260040180806020018281038252602a815260200180614f8d602a913960400191505060405180910390fd5b6121fb600160008473ffffffffffffffffffffffffffffffffffffffff1673ffffffffffffffffffffffffffffffffffffffff1681526020019081526020016000206141a9565b9050919050565b61220a613b43565b73ffffffffffffffffffffffffffffffffffffffff16600a60009054906101000a900473ffffffffffffffffffffffffffffffffffffffff1673ffffffffffffffffffffffffffffffffffffffff16146122cc576040517f08c379a00000000000000000000000000000000000000000000000000000000081526004018080602001828103825260208152602001807f4f776e61626c653a2063616c6c6572206973206e6f7420746865206f776e657281525060200191505060405180910390fd5b600073ffffffffffffffffffffffffffffffffffffffff16600a60009054906101000a900473ffffffffffffffffffffffffffffffffffffffff1673ffffffffffffffffffffffffffffffffffffffff167f8be0079c531659141344cd1fd0a4f28419497f9722a3daafe3b4186f6b6457e060405160405180910390a36000600a60006101000a81548173ffffffffffffffffffffffffffffffffffffffff021916908373ffffffffffffffffffffffffffffffffffffffff160217905550565b612395614e10565b600d60008381526020019081526020016000206040518060a00160405290816000820160009054906101000a900460ff16151515158152602001600182015481526020016002820160009054906101000a900473ffffffffffffffffffffffffffffffffffffffff1673ffffffffffffffffffffffffffffffffffffffff1673ffffffffffffffffffffffffffffffffffffffff168152602001600382015481526020016004820160009054906101000a900473ffffffffffffffffffffffffffffffffffffffff1673ffffffffffffffffffffffffffffffffffffffff1673ffffffffffffffffffffffffffffffffffffffff16815250509050806000015161249e57600080fd5b600073ffffffffffffffffffffffffffffffffffffffff16816080015173ffffffffffffffffffffffffffffffffffffffff161415801561250f57503373ffffffffffffffffffffffffffffffffffffffff16816080015173ffffffffffffffffffffffffffffffffffffffff1614155b1561251957600080fd5b806060015134101561252a57600080fd5b61253382612054565b73ffffffffffffffffffffffffffffffffffffffff16816040015173ffffffffffffffffffffffffffffffffffffffff161461256e57600080fd5b600081604001519050612582813385613f01565b61258b83611cd9565b34600f60008373ffffffffffffffffffffffffffffffffffffffff1673ffffffffffffffffffffffffffffffffffffffff168152602001908152602001600020600082825401925050819055506125e0614dd0565b600e60008581526020019081526020016000206040518060800160405290816000820160009054906101000a900460ff16151515158152602001600182015481526020016002820160009054906101000a900473ffffffffffffffffffffffffffffffffffffffff1673ffffffffffffffffffffffffffffffffffffffff1673ffffffffffffffffffffffffffffffffffffffff16815260200160038201548152505090503373ffffffffffffffffffffffffffffffffffffffff16816040015173ffffffffffffffffffffffffffffffffffffffff1614156127dc578060600151600f60003373ffffffffffffffffffffffffffffffffffffffff1673ffffffffffffffffffffffffffffffffffffffff168152602001908152602001600020600082825401925050819055506040518060800160405280600015158152602001858152602001600073ffffffffffffffffffffffffffffffffffffffff1681526020016000815250600e600086815260200190815260200160002060008201518160000160006101000a81548160ff0219169083151502179055506020820151816001015560408201518160020160006101000a81548173ffffffffffffffffffffffffffffffffffffffff021916908373ffffffffffffffffffffffffffffffffffffffff160217905550606082015181600301559050505b50505050565b6000600a60009054906101000a900473ffffffffffffffffffffffffffffffffffffffff16905090565b3373ffffffffffffffffffffffffffffffffffffffff1661282c82612054565b73ffffffffffffffffffffffffffffffffffffffff161461284c57600080fd5b600d600082815260200190815260200160002060000160009054906101000a900460ff161561287f5761287e81611cd9565b5b61288a338383611c96565b612892614dd0565b600e60008381526020019081526020016000206040518060800160405290816000820160009054906101000a900460ff16151515158152602001600182015481526020016002820160009054906101000a900473ffffffffffffffffffffffffffffffffffffffff1673ffffffffffffffffffffffffffffffffffffffff1673ffffffffffffffffffffffffffffffffffffffff16815260200160038201548152505090508273ffffffffffffffffffffffffffffffffffffffff16816040015173ffffffffffffffffffffffffffffffffffffffff161415612a8e578060600151600f60003373ffffffffffffffffffffffffffffffffffffffff1673ffffffffffffffffffffffffffffffffffffffff168152602001908152602001600020600082825401925050819055506040518060800160405280600015158152602001838152602001600073ffffffffffffffffffffffffffffffffffffffff1681526020016000815250600e600084815260200190815260200160002060008201518160000160006101000a81548160ff0219169083151502179055506020820151816001015560408201518160020160006101000a81548173ffffffffffffffffffffffffffffffffffffffff021916908373ffffffffffffffffffffffffffffffffffffffff160217905550606082015181600301559050505b505050565b606060078054600181600116156101000203166002900480601f016020809104026020016040519081016040528092919081815260200182805460018160011615610100020316600290048015612b2b5780601f10612b0057610100808354040283529160200191612b2b565b820191906000526020600020905b815481529060010190602001808311612b0e57829003601f168201915b5050505050905090565b3373ffffffffffffffffffffffffffffffffffffffff16612b5584612054565b73ffffffffffffffffffffffffffffffffffffffff1614612b7557600080fd5b6040518060a001604052806001151581526020018481526020013373ffffffffffffffffffffffffffffffffffffffff1681526020018381526020018273ffffffffffffffffffffffffffffffffffffffff16815250600d600085815260200190815260200160002060008201518160000160006101000a81548160ff0219169083151502179055506020820151816001015560408201518160020160006101000a81548173ffffffffffffffffffffffffffffffffffffffff021916908373ffffffffffffffffffffffffffffffffffffffff1602179055506060820151816003015560808201518160040160006101000a81548173ffffffffffffffffffffffffffffffffffffffff021916908373ffffffffffffffffffffffffffffffffffffffff1602179055509050507fb93c24edbc654401ba92e865b581b55624669f98eacad7128b8f59bbdf55cd66838383604051808481526020018381526020018273ffffffffffffffffffffffffffffffffffffffff168152602001935050505060405180910390a1505050565b612d0d613b43565b73ffffffffffffffffffffffffffffffffffffffff168273ffffffffffffffffffffffffffffffffffffffff161415612dae576040517f08c379a00000000000000000000000000000000000000000000000000000000081526004018080602001828103825260198152602001807f4552433732313a20617070726f766520746f2063616c6c65720000000000000081525060200191505060405180910390fd5b8060056000612dbb613b43565b73ffffffffffffffffffffffffffffffffffffffff1673ffffffffffffffffffffffffffffffffffffffff16815260200190815260200160002060008473ffffffffffffffffffffffffffffffffffffffff1673ffffffffffffffffffffffffffffffffffffffff16815260200190815260200160002060006101000a81548160ff0219169083151502179055508173ffffffffffffffffffffffffffffffffffffffff16612e68613b43565b73ffffffffffffffffffffffffffffffffffffffff167f17307eab39ab6107e8899845ad3d59bd9653f200f220920489ca2b5937696c318360405180821515815260200191505060405180910390a35050565b600d6020528060005260406000206000915090508060000160009054906101000a900460ff16908060010154908060020160009054906101000a900473ffffffffffffffffffffffffffffffffffffffff16908060030154908060040160009054906101000a900473ffffffffffffffffffffffffffffffffffffffff16905085565b612f4f612f49613b43565b83613e0d565b612fa4576040517f08c379a00000000000000000000000000000000000000000000000000000000081526004018080602001828103825260318152602001806150a76031913960400191505060405180910390fd5b612fb0848484846141be565b50505050565b60108181548110612fc357fe5b9060005260206000209060030201600091509050806000015490806001018054600181600116156101000203166002900480601f0160208091040260200160405190810160405280929190818152602001828054600181600116156101000203166002900480156130755780601f1061304a57610100808354040283529160200191613075565b820191906000526020600020905b81548152906001019060200180831161305857829003601f168201915b505050505090806002018054600181600116156101000203166002900480601f0160208091040260200160405190810160405280929190818152602001828054600181600116156101000203166002900480156131135780601f106130e857610100808354040283529160200191613113565b820191906000526020600020905b8154815290600101906020018083116130f657829003601f168201915b5050505050905083565b606061312882613b26565b61317d576040517f08c379a000000000000000000000000000000000000000000000000000000000815260040180806020018281038252602f815260200180615057602f913960400191505060405180910390fd5b6060600860008481526020019081526020016000208054600181600116156101000203166002900480601f0160208091040260200160405190810160405280929190818152602001828054600181600116156101000203166002900480156132265780601f106131fb57610100808354040283529160200191613226565b820191906000526020600020905b81548152906001019060200180831161320957829003601f168201915b505050505090506000600980546001816001161561010002031660029004905014156132555780915050613401565b60008151111561332e5760098160405160200180838054600181600116156101000203166002900480156132c05780601f1061329e5761010080835404028352918201916132c0565b820191906000526020600020905b8154815290600101906020018083116132ac575b505082805190602001908083835b602083106132f157805182526020820191506020810190506020830392506132ce565b6001836020036101000a03801982511681845116808217855250505050505090500192505050604051602081830303815290604052915050613401565b600961333984614230565b60405160200180838054600181600116156101000203166002900480156133975780601f10613375576101008083540402835291820191613397565b820191906000526020600020905b815481529060010190602001808311613383575b505082805190602001908083835b602083106133c857805182526020820191506020810190506020830392506133a5565b6001836020036101000a038019825116818451168082178552505050505050905001925050506040516020818303038152906040529150505b919050565b3373ffffffffffffffffffffffffffffffffffffffff1661342683612054565b73ffffffffffffffffffffffffffffffffffffffff161461344657600080fd5b6000339050613453614dd0565b600e60008581526020019081526020016000206040518060800160405290816000820160009054906101000a900460ff16151515158152602001600182015481526020016002820160009054906101000a900473ffffffffffffffffffffffffffffffffffffffff1673ffffffffffffffffffffffffffffffffffffffff1673ffffffffffffffffffffffffffffffffffffffff168152602001600382015481525050905060008160600151141561350a57600080fd5b828160600151101561351b57600080fd5b61352a33826040015186611c96565b6040518060a00160405280600015158152602001858152602001826040015173ffffffffffffffffffffffffffffffffffffffff16815260200160008152602001600073ffffffffffffffffffffffffffffffffffffffff16815250600d600086815260200190815260200160002060008201518160000160006101000a81548160ff0219169083151502179055506020820151816001015560408201518160020160006101000a81548173ffffffffffffffffffffffffffffffffffffffff021916908373ffffffffffffffffffffffffffffffffffffffff1602179055506060820151816003015560808201518160040160006101000a81548173ffffffffffffffffffffffffffffffffffffffff021916908373ffffffffffffffffffffffffffffffffffffffff1602179055509050506000816060015190506040518060800160405280600015158152602001868152602001600073ffffffffffffffffffffffffffffffffffffffff1681526020016000815250600e600087815260200190815260200160002060008201518160000160006101000a81548160ff0219169083151502179055506020820151816001015560408201518160020160006101000a81548173ffffffffffffffffffffffffffffffffffffffff021916908373ffffffffffffffffffffffffffffffffffffffff1602179055506060820151816003015590505080600f60008573ffffffffffffffffffffffffffffffffffffffff1673ffffffffffffffffffffffffffffffffffffffff168152602001908152602001600020600082825401925050819055507f6d62730e57ae25889beb253ef745a11bbf2a9be0e0ced29363056c456036b227858360600151858560400151604051808581526020018481526020018373ffffffffffffffffffffffffffffffffffffffff1681526020018273ffffffffffffffffffffffffffffffffffffffff16815260200194505050505060405180910390a15050505050565b600e6020528060005260406000206000915090508060000160009054906101000a900460ff16908060010154908060020160009054906101000a900473ffffffffffffffffffffffffffffffffffffffff16908060030154905084565b565b6000600560008473ffffffffffffffffffffffffffffffffffffffff1673ffffffffffffffffffffffffffffffffffffffff16815260200190815260200160002060008373ffffffffffffffffffffffffffffffffffffffff1673ffffffffffffffffffffffffffffffffffffffff16815260200190815260200160002060009054906101000a900460ff16905092915050565b613906613b43565b73ffffffffffffffffffffffffffffffffffffffff16600a60009054906101000a900473ffffffffffffffffffffffffffffffffffffffff1673ffffffffffffffffffffffffffffffffffffffff16146139c8576040517f08c379a00000000000000000000000000000000000000000000000000000000081526004018080602001828103825260208152602001807f4f776e61626c653a2063616c6c6572206973206e6f7420746865206f776e657281525060200191505060405180910390fd5b600073ffffffffffffffffffffffffffffffffffffffff168173ffffffffffffffffffffffffffffffffffffffff161415613a4e576040517f08c379a0000000000000000000000000000000000000000000000000000000008152600401808060200182810382526026815260200180614edf6026913960400191505060405180910390fd5b8073ffffffffffffffffffffffffffffffffffffffff16600a60009054906101000a900473ffffffffffffffffffffffffffffffffffffffff1673ffffffffffffffffffffffffffffffffffffffff167f8be0079c531659141344cd1fd0a4f28419497f9722a3daafe3b4186f6b6457e060405160405180910390a380600a60006101000a81548173ffffffffffffffffffffffffffffffffffffffff021916908373ffffffffffffffffffffffffffffffffffffffff16021790555050565b600f6020528060005260406000206000915090505481565b6000613b3c82600261437790919063ffffffff16565b9050919050565b600033905090565b816004600083815260200190815260200160002060006101000a81548173ffffffffffffffffffffffffffffffffffffffff021916908373ffffffffffffffffffffffffffffffffffffffff160217905550808273ffffffffffffffffffffffffffffffffffffffff16613bbe83612054565b73ffffffffffffffffffffffffffffffffffffffff167f8c5be1e5ebec7d5bd14f71427d1e84f3dd0314c0f7b2291e5b200ac8c7c3b92560405160405180910390a45050565b6000613c1282600001614391565b9050919050565b600073ffffffffffffffffffffffffffffffffffffffff168273ffffffffffffffffffffffffffffffffffffffff161415613cbc576040517f08c379a00000000000000000000000000000000000000000000000000000000081526004018080602001828103825260208152602001807f4552433732313a206d696e7420746f20746865207a65726f206164647265737381525060200191505060405180910390fd5b613cc581613b26565b15613d38576040517f08c379a000000000000000000000000000000000000000000000000000000000815260040180806020018281038252601c8152602001807f4552433732313a20746f6b656e20616c7265616479206d696e7465640000000081525060200191505060405180910390fd5b613d44600083836143a2565b613d9581600160008573ffffffffffffffffffffffffffffffffffffffff1673ffffffffffffffffffffffffffffffffffffffff1681526020019081526020016000206143a790919063ffffffff16565b50613dac818360026143c19092919063ffffffff16565b50808273ffffffffffffffffffffffffffffffffffffffff16600073ffffffffffffffffffffffffffffffffffffffff167fddf252ad1be2c89b69c2b068fc378daa952ba7f163c4a11628f55a4df523b3ef60405160405180910390a45050565b6000613e1882613b26565b613e6d576040517f08c379a000000000000000000000000000000000000000000000000000000000815260040180806020018281038252602c815260200180614f29602c913960400191505060405180910390fd5b6000613e7883612054565b90508073ffffffffffffffffffffffffffffffffffffffff168473ffffffffffffffffffffffffffffffffffffffff161480613ee757508373ffffffffffffffffffffffffffffffffffffffff16613ecf8461122b565b73ffffffffffffffffffffffffffffffffffffffff16145b80613ef85750613ef7818561386a565b5b91505092915050565b8273ffffffffffffffffffffffffffffffffffffffff16613f2182612054565b73ffffffffffffffffffffffffffffffffffffffff1614613f8d576040517f08c379a000000000000000000000000000000000000000000000000000000000815260040180806020018281038252602981526020018061502e6029913960400191505060405180910390fd5b600073ffffffffffffffffffffffffffffffffffffffff168273ffffffffffffffffffffffffffffffffffffffff161415614013576040517f08c379a0000000000000000000000000000000000000000000000000000000008152600401808060200182810382526024815260200180614f056024913960400191505060405180910390fd5b61401e8383836143a2565b614029600082613b4b565b61407a81600160008673ffffffffffffffffffffffffffffffffffffffff1673ffffffffffffffffffffffffffffffffffffffff1681526020019081526020016000206143f690919063ffffffff16565b506140cc81600160008573ffffffffffffffffffffffffffffffffffffffff1673ffffffffffffffffffffffffffffffffffffffff1681526020019081526020016000206143a790919063ffffffff16565b506140e3818360026143c19092919063ffffffff16565b50808273ffffffffffffffffffffffffffffffffffffffff168473ffffffffffffffffffffffffffffffffffffffff167fddf252ad1be2c89b69c2b068fc378daa952ba7f163c4a11628f55a4df523b3ef60405160405180910390a4505050565b60006141538360000183614410565b60001c905092915050565b6000806000806141718660000186614493565b915091508160001c8160001c9350935050509250929050565b600061419d846000018460001b8461452c565b60001c90509392505050565b60006141b782600001614622565b9050919050565b6141c9848484613f01565b6141d584848484614633565b61422a576040517f08c379a0000000000000000000000000000000000000000000000000000000008152600401808060200182810382526032815260200180614ead6032913960400191505060405180910390fd5b50505050565b60606000821415614278576040518060400160405280600181526020017f30000000000000000000000000000000000000000000000000000000000000008152509050614372565b600082905060005b600082146142a2578080600101915050600a828161429a57fe5b049150614280565b60608167ffffffffffffffff811180156142bb57600080fd5b506040519080825280601f01601f1916602001820160405280156142ee5781602001600182028036833780820191505090505b50905060006001830390508593505b6000841461436a57600a848161430f57fe5b0660300160f81b8282806001900393508151811061432957fe5b60200101907effffffffffffffffffffffffffffffffffffffffffffffffffffffffffffff1916908160001a905350600a848161436257fe5b0493506142fd565b819450505050505b919050565b6000614389836000018360001b61484c565b905092915050565b600081600001805490509050919050565b505050565b60006143b9836000018360001b61486f565b905092915050565b60006143ed846000018460001b8473ffffffffffffffffffffffffffffffffffffffff1660001b6148df565b90509392505050565b6000614408836000018360001b6149bb565b905092915050565b600081836000018054905011614471576040517f08c379a0000000000000000000000000000000000000000000000000000000008152600401808060200182810382526022815260200180614e8b6022913960400191505060405180910390fd5b82600001828154811061448057fe5b9060005260206000200154905092915050565b600080828460000180549050116144f5576040517f08c379a0000000000000000000000000000000000000000000000000000000008152600401808060200182810382526022815260200180614fe06022913960400191505060405180910390fd5b600084600001848154811061450657fe5b906000526020600020906002020190508060000154816001015492509250509250929050565b600080846001016000858152602001908152602001600020549050600081141583906145f3576040517f08c379a00000000000000000000000000000000000000000000000000000000081526004018080602001828103825283818151815260200191508051906020019080838360005b838110156145b857808201518184015260208101905061459d565b50505050905090810190601f1680156145e55780820380516001836020036101000a031916815260200191505b509250505060405180910390fd5b5084600001600182038154811061460657fe5b9060005260206000209060020201600101549150509392505050565b600081600001805490509050919050565b60006146548473ffffffffffffffffffffffffffffffffffffffff16614aa3565b6146615760019050614844565b60606147cb63150b7a0260e01b614676613b43565b888787604051602401808573ffffffffffffffffffffffffffffffffffffffff1681526020018473ffffffffffffffffffffffffffffffffffffffff16815260200183815260200180602001828103825283818151815260200191508051906020019080838360005b838110156146fa5780820151818401526020810190506146df565b50505050905090810190601f1680156147275780820380516001836020036101000a031916815260200191505b5095505050505050604051602081830303815290604052907bffffffffffffffffffffffffffffffffffffffffffffffffffffffff19166020820180517bffffffffffffffffffffffffffffffffffffffffffffffffffffffff8381831617835250505050604051806060016040528060328152602001614ead603291398773ffffffffffffffffffffffffffffffffffffffff16614aee9092919063ffffffff16565b905060008180602001905160208110156147e457600080fd5b8101908080519060200190929190505050905063150b7a0260e01b7bffffffffffffffffffffffffffffffffffffffffffffffffffffffff1916817bffffffffffffffffffffffffffffffffffffffffffffffffffffffff191614925050505b949350505050565b600080836001016000848152602001908152602001600020541415905092915050565b600061487b8383614b06565b6148d45782600001829080600181540180825580915050600190039060005260206000200160009091909190915055826000018054905083600101600084815260200190815260200160002081905550600190506148d9565b600090505b92915050565b6000808460010160008581526020019081526020016000205490506000811415614986578460000160405180604001604052808681526020018581525090806001815401808255809150506001900390600052602060002090600202016000909190919091506000820151816000015560208201518160010155505084600001805490508560010160008681526020019081526020016000208190555060019150506149b4565b8285600001600183038154811061499957fe5b90600052602060002090600202016001018190555060009150505b9392505050565b60008083600101600084815260200190815260200160002054905060008114614a975760006001820390506000600186600001805490500390506000866000018281548110614a0657fe5b9060005260206000200154905080876000018481548110614a2357fe5b9060005260206000200181905550600183018760010160008381526020019081526020016000208190555086600001805480614a5b57fe5b60019003818190600052602060002001600090559055866001016000878152602001908152602001600020600090556001945050505050614a9d565b60009150505b92915050565b60008060007fc5d2460186f7233c927e7db2dcc703c0e500b653ca82273b7bfad8045d85a47060001b9050833f9150808214158015614ae557506000801b8214155b92505050919050565b6060614afd8484600085614b29565b90509392505050565b600080836001016000848152602001908152602001600020541415905092915050565b6060614b3485614aa3565b614ba6576040517f08c379a000000000000000000000000000000000000000000000000000000000815260040180806020018281038252601d8152602001807f416464726573733a2063616c6c20746f206e6f6e2d636f6e747261637400000081525060200191505060405180910390fd5b600060608673ffffffffffffffffffffffffffffffffffffffff1685876040518082805190602001908083835b60208310614bf65780518252602082019150602081019050602083039250614bd3565b6001836020036101000a03801982511681845116808217855250505050505090500191505060006040518083038185875af1925050503d8060008114614c58576040519150601f19603f3d011682016040523d82523d6000602084013e614c5d565b606091505b50915091508115614c72578092505050614d27565b600081511115614c855780518082602001fd5b836040517f08c379a00000000000000000000000000000000000000000000000000000000081526004018080602001828103825283818151815260200191508051906020019080838360005b83811015614cec578082015181840152602081019050614cd1565b50505050905090810190601f168015614d195780820380516001836020036101000a031916815260200191505b509250505060405180910390fd5b949350505050565b60405180606001604052806000815260200160608152602001606081525090565b828054600181600116156101000203166002900490600052602060002090601f016020900481019282601f10614d9157805160ff1916838001178555614dbf565b82800160010185558215614dbf579182015b82811115614dbe578251825591602001919060010190614da3565b5b509050614dcc9190614e6d565b5090565b604051806080016040528060001515815260200160008152602001600073ffffffffffffffffffffffffffffffffffffffff168152602001600081525090565b6040518060a0016040528060001515815260200160008152602001600073ffffffffffffffffffffffffffffffffffffffff16815260200160008152602001600073ffffffffffffffffffffffffffffffffffffffff1681525090565b5b80821115614e86576000816000905550600101614e6e565b509056fe456e756d657261626c655365743a20696e646578206f7574206f6620626f756e64734552433732313a207472616e7366657220746f206e6f6e20455243373231526563656976657220696d706c656d656e7465724f776e61626c653a206e6577206f776e657220697320746865207a65726f20616464726573734552433732313a207472616e7366657220746f20746865207a65726f20616464726573734552433732313a206f70657261746f7220717565727920666f72206e6f6e6578697374656e7420746f6b656e4552433732313a20617070726f76652063616c6c6572206973206e6f74206f776e6572206e6f7220617070726f76656420666f7220616c6c4552433732313a2062616c616e636520717565727920666f7220746865207a65726f20616464726573734552433732313a206f776e657220717565727920666f72206e6f6e6578697374656e7420746f6b656e456e756d657261626c654d61703a20696e646578206f7574206f6620626f756e64734552433732313a20617070726f76656420717565727920666f72206e6f6e6578697374656e7420746f6b656e4552433732313a207472616e73666572206f6620746f6b656e2074686174206973206e6f74206f776e4552433732314d657461646174613a2055524920717565727920666f72206e6f6e6578697374656e7420746f6b656e4552433732313a20617070726f76616c20746f2063757272656e74206f776e65724552433732313a207472616e736665722063616c6c6572206973206e6f74206f776e6572206e6f7220617070726f766564a2646970667358221220f9b270ca59c8cd514be21aaed8234bc1e914546f5f68c1549561d732d1ce4d5d64736f6c63430007000033",
  "immutableReferences": {},
  "source": "// SPDX-License-Identifier: MIT\npragma solidity >=0.7.0 <0.9.0;\n\nimport \"@openzeppelin/contracts/token/ERC721/ERC721.sol\";\nimport \"@openzeppelin/contracts/access/Ownable.sol\";\ncontract BasicNFT is ERC721,Ownable {\n    \n  mapping (uint256 => address) internal tokenOwner;\n  uint constant minPrice = 0.01 ether;\n  address contractOwner;\n  constructor() public ERC721(\"Coinasty\", \"CNSTY\"){contractOwner = msg.sender;}\n\n  struct Coin {\n    uint coinIndex;\n    string nameOfCoin;\n    string ipfsHash;\n  }\n  \n  struct Bid {\n        bool hasBid;\n        uint coinIndex;\n        address bidder;\n        uint value;\n    }\n  \n  struct Offer {\n        bool isForSale;\n        uint coinIndex;\n        address seller;\n        uint minValue;          // in ether\n        address onlySellTo;     // specify to sell only to a specific person\n    }\n    \n    mapping (uint => Offer) public coinsOfferedForSale;\n    mapping (uint => Bid) public coinBids;\n    mapping (address => uint) public pendingWithdrawals;\n    Coin[] public coins;\n    \n    event CoinOffered(uint coinIndex, uint minPrice, address toAddress);\n    event CoinNoMoreForSale(uint coinIndex);\n    event CoinBidEntered(uint coinIndex, uint value, address fromAddress);\n    event CoinBought(uint  coinIndex, uint value, address fromAddress, address toAddress);\n    event CoinBidWithdrawn(uint coinIndex, uint value, address fromAddress);  \n  \n  function preMint(string memory _nameOfCoin,string memory _ipfsHash)public{\n      require (msg.sender==contractOwner);\n      uint _coinId = coins.length;\n        Coin memory _coin= Coin({ coinIndex:_coinId, nameOfCoin: _nameOfCoin ,ipfsHash: _ipfsHash});\n        coins.push(_coin);\n        _mint(msg.sender, _coinId);\n  }\n  \n  \n  \n  function mint(uint _coinId) private {\n    _mint(msg.sender, _coinId);\n        \n  }\n  \n  function BuyNewCoin() public payable{\n      //todo\n  }\n  \n  \n  function CoinNoLongerForSale(uint _coinIndex) public{\n      if (ownerOf(_coinIndex) != msg.sender) revert();\n      coinsOfferedForSale[_coinIndex] = Offer({ isForSale: false, coinIndex: _coinIndex , seller: msg.sender, minValue: 0, onlySellTo: address(0)});\n      CoinNoMoreForSale(_coinIndex);\n      \n  }\n  \n  function offerCoinForSale(uint _coinIndex, uint minSalePriceInWei) public{\n      if (ownerOf(_coinIndex) != msg.sender) revert();\n      coinsOfferedForSale[_coinIndex] = Offer({ isForSale: true, coinIndex: _coinIndex , seller: msg.sender, minValue: minSalePriceInWei, onlySellTo: address(0)});\n      CoinOffered(_coinIndex, minSalePriceInWei, address(0));\n      \n  }\n  \n  function offerCoinForSaleToAddress(uint _coinIndex, uint minSalePriceInWei,address toAddress) public{\n      if (ownerOf(_coinIndex) != msg.sender) revert();\n      coinsOfferedForSale[_coinIndex] = Offer({ isForSale: true, coinIndex: _coinIndex , seller: msg.sender, minValue: minSalePriceInWei, onlySellTo: toAddress});\n      CoinOffered(_coinIndex, minSalePriceInWei, toAddress);\n      \n  }\n  \n  \n  function buyCoin(uint _coinIndex) public payable{\n        Offer memory offer = coinsOfferedForSale[_coinIndex];\n        if (!offer.isForSale) revert();                // coin not actually for sale\n        if (offer.onlySellTo != address(0) && offer.onlySellTo != msg.sender) revert();  // coin not supposed to be sold to this user\n        if (msg.value < offer.minValue) revert();      // Didn't send enough ETH\n        if (offer.seller != ownerOf(_coinIndex)) revert();\n\n        address seller = offer.seller;\n\n        _transfer(seller,msg.sender,_coinIndex);\n        CoinNoLongerForSale(_coinIndex);\n        pendingWithdrawals[seller] += msg.value;\n\n        // Check for the case where there is a bid from the new owner and refund it.\n        // Any other bid can stay in place.\n        Bid memory bid = coinBids[_coinIndex];\n        if (bid.bidder == msg.sender) {\n            // Kill bid and refund value\n            pendingWithdrawals[msg.sender] += bid.value;\n            coinBids[_coinIndex] = Bid(false, _coinIndex, address(0), 0);\n        }\n  }\n  \n  function transferCoin(address to, uint _coinIndex) public{\n        if (ownerOf(_coinIndex) != msg.sender) revert();                // coin not actually for sale\n        if (coinsOfferedForSale[_coinIndex].isForSale) {\n            CoinNoLongerForSale(_coinIndex);\n        }\n        \n        safeTransferFrom(msg.sender, to, _coinIndex);\n\n        // Check for the case where there is a bid from the new owner and refund it.\n        // Any other bid can stay in place.\n        Bid memory bid = coinBids[_coinIndex];\n        if (bid.bidder == to) {\n            // Kill bid and refund value\n            pendingWithdrawals[msg.sender] += bid.value;\n            coinBids[_coinIndex] = Bid(false, _coinIndex, address(0), 0);\n        }\n  }\n  function withdraw() public{\n        uint amount = pendingWithdrawals[msg.sender];\n        // Remember to zero the pending refund before\n        // sending to prevent re-entrancy attacks\n        pendingWithdrawals[msg.sender] = 0;\n        msg.sender.transfer(amount);\n    }\n  function enterBidForCoin(uint _coinIndex) public payable {\n        if (ownerOf(_coinIndex) == address(0)) revert();\n        if (ownerOf(_coinIndex) == msg.sender) revert();\n        if (msg.value == 0) revert();\n        Bid memory existing = coinBids[_coinIndex];\n        if (msg.value <= existing.value) revert();\n        if (existing.value > 0) {\n            // Refund the failing bid\n            pendingWithdrawals[existing.bidder] += existing.value;\n        }\n        coinBids[_coinIndex] = Bid(true, _coinIndex, msg.sender, msg.value);\n        CoinBidEntered(_coinIndex, msg.value, msg.sender);\n    }\n    \n    function acceptBidForCoin(uint _coinIndex, uint minPrice) public{\n               \n        if (ownerOf(_coinIndex) != msg.sender) revert();\n        address seller = msg.sender;\n        Bid memory bid = coinBids[_coinIndex];\n        if (bid.value == 0) revert();\n        if (bid.value < minPrice) revert();\n        \n        safeTransferFrom(msg.sender, bid.bidder, _coinIndex);\n\n        coinsOfferedForSale[_coinIndex] = Offer(false, _coinIndex, bid.bidder, 0, address(0));\n        uint amount = bid.value;\n        coinBids[_coinIndex] = Bid(false, _coinIndex, address(0), 0);\n        pendingWithdrawals[seller] += amount;\n        CoinBought(_coinIndex, bid.value, seller, bid.bidder);\n    }\n\n    function withdrawBidForCoin(uint _coinIndex) public{\n        if (ownerOf(_coinIndex) == address(0)) revert();\n        if (ownerOf(_coinIndex) == msg.sender) revert();\n        Bid memory bid = coinBids[_coinIndex];\n        if (bid.bidder != msg.sender) revert();\n        CoinBidWithdrawn(_coinIndex, bid.value, msg.sender);\n        uint amount = bid.value;\n        coinBids[_coinIndex] = Bid(false, _coinIndex, address(0), 0);\n        // Refund the bid money\n        msg.sender.transfer(amount);\n    }\n}\n",
  "sourcePath": "/Users/giorgiopietramala/Documents/GitHub/NFTMarketplace-g/contracts/NFTBasic.sol",
  "compiler": {
    "name": "solc",
    "version": "0.7.0+commit.9e61f92b.Emscripten.clang"
  },
  "schemaVersion": "3.3.4",
  "updatedAt": "2021-06-05T21:52:02.901Z",
  "devdoc": {
    "kind": "dev",
    "methods": {
      "approve(address,uint256)": {
        "details": "See {IERC721-approve}."
      },
      "balanceOf(address)": {
        "details": "See {IERC721-balanceOf}."
      },
      "baseURI()": {
        "details": "Returns the base URI set via {_setBaseURI}. This will be automatically added as a prefix in {tokenURI} to each token's URI, or to the token ID if no specific URI is set for that token ID."
      },
      "getApproved(uint256)": {
        "details": "See {IERC721-getApproved}."
      },
      "isApprovedForAll(address,address)": {
        "details": "See {IERC721-isApprovedForAll}."
      },
      "name()": {
        "details": "See {IERC721Metadata-name}."
      },
      "owner()": {
        "details": "Returns the address of the current owner."
      },
      "ownerOf(uint256)": {
        "details": "See {IERC721-ownerOf}."
      },
      "renounceOwnership()": {
        "details": "Leaves the contract without owner. It will not be possible to call `onlyOwner` functions anymore. Can only be called by the current owner. NOTE: Renouncing ownership will leave the contract without an owner, thereby removing any functionality that is only available to the owner."
      },
      "safeTransferFrom(address,address,uint256)": {
        "details": "See {IERC721-safeTransferFrom}."
      },
      "safeTransferFrom(address,address,uint256,bytes)": {
        "details": "See {IERC721-safeTransferFrom}."
      },
      "setApprovalForAll(address,bool)": {
        "details": "See {IERC721-setApprovalForAll}."
      },
      "supportsInterface(bytes4)": {
        "details": "See {IERC165-supportsInterface}. Time complexity O(1), guaranteed to always use less than 30 000 gas."
      },
      "symbol()": {
        "details": "See {IERC721Metadata-symbol}."
      },
      "tokenByIndex(uint256)": {
        "details": "See {IERC721Enumerable-tokenByIndex}."
      },
      "tokenOfOwnerByIndex(address,uint256)": {
        "details": "See {IERC721Enumerable-tokenOfOwnerByIndex}."
      },
      "tokenURI(uint256)": {
        "details": "See {IERC721Metadata-tokenURI}."
      },
      "totalSupply()": {
        "details": "See {IERC721Enumerable-totalSupply}."
      },
      "transferFrom(address,address,uint256)": {
        "details": "See {IERC721-transferFrom}."
      },
      "transferOwnership(address)": {
        "details": "Transfers ownership of the contract to a new account (`newOwner`). Can only be called by the current owner."
      }
    },
    "version": 1
  },
  "userdoc": {
    "kind": "user",
    "methods": {},
    "version": 1
  }
}